:100000000C9472000C948B000C948B000C948B005D
:100010000C948B000C948B000C948B000C948B0034
:100020000C948B000C948B000C948B000C948B0024
:100030000C948B000C948B000C948B000C948B0014
:100040000C948B000C948B000C948B000C948B0004
:100050000C948B000C948B000C948B000C948B00F4
:100060000C948B000C948B000C948B000C948B00E4
:100070000C948B000C948B000C948B000C948B00D4
:100080000C948B000C948B000C948B000C948B00C4
:100090000C948B000C948B000C948B000C948B00B4
:1000A0000C948B000C948B000C948B000C948B00A4
:1000B0000C948B000C948B000C948B000C948B0094
:1000C0000C948B000C948B000C948B000C948B0084
:1000D0000C948B000C948B000C948B000C948B0074
:1000E0000C948B0011241FBECFEFD1E2DEBFCDBF39
:1000F00000E00CBF12E0A0E0B2E0EBE2F3E000E0D1
:100100000BBF02C007900D92AE30B107D9F70E9425
:10011000B2000C94C8000C9400001092C000109221
:10012000C50083E38093C40088E18093C10086E02A
:100130008093C20008959091C00095FFFCCF8093FA
:10014000C60080E090E00895CF93DF93EC018991A1
:10015000882319F00E949B00FACF8AE0DF91CF91AB
:100160000C949B000E948D0080E092E00E94A4000D
:100170002FEF84E39CE0215080409040E1F700C0E5
:10018000000087E00E949B00889580E090E0089541
:04019000F894FFCF11
:100194000E2300C0005543535230410000000000BC
:1001A400000000000000000000000000000000004B
:1001B40000000000000E2300C1005543535230429A
:1001C400000000000000000000000000000000002B
:1001D400000000000000000000000E2300C20055D3
:1001E40043535230430000000000000000000000B0
:1001F4000000000000000000000000000000000EED
:100204002300C5005542525230480000000000004F
:1002140000000000000000000000000000000000DA
:10022400000000000E2300C40055425252304C001E
:1002340000000000000000000000000000000000BA
:100244000000000000000000000E2320C000554400
:1002540052453000000000000000000000000000D3
:1002640000000000000000000000000000000E2359
:1002740000C6005544523000000000000000000099
:10028400000000000000000000000000000000006A
:100294000000000E23002E00504F52544500000071
:1002A400000000000000000000000000000000004A
:1002B40000000000000000000E23022E0050453113
:1002C400000000000000000000000000000000002A
:1002D4000000000000000000000000000000000218
:1002E4000400127A00014061746D6567613235362D
:1002F40030000000000000000000000000000000CA
:1003040000000000000000000000000000000000E9
:1003140000000000000000000000000000000000D9
:0703240000000000000000D2
:0E032B0048656C6C6F20576F726C6421000087
:00000001FF
