:100000000C9479000C9485000C9485000C94850068
:100010000C9485000C9485000C9485000C9485004C
:100020000C9485000C9485000C9485000C9485003C
:100030000C9485000C9485000C9485000C9485002C
:100040000C9485000C9485000C9485000C9485001C
:100050000C9485000C9485000C9485000C9485000C
:100060000C9485000C9485000C9485000C948500FC
:100070000C9485000C9485000C9485000C948500EC
:100080000C9485000C9485000C9485000C948500DC
:100090000C9485000C9485000C9485000C948500CC
:1000A0000C9485000C9485000C9485000C948500BC
:1000B0000C9485000C9485000C9485000C948500AC
:1000C0000C9485000C9485000C9485000C9485009C
:1000D0000C9485000C9485000C9485000C9485008C
:1000E0000C94850048656C6C6F20576F726C6421AE
:1000F000000011241FBECFEFD1E2DEBFCDBF00E074
:100100000CBF0E949E000C94C7000C94000010923B
:10011000C0001092C50083E38093C40088E18093FF
:10012000C10086E08093C20008959091C00095FFC1
:10013000FCCF8093C60080E090E008950F931F935A
:10014000CF930E94870004EE10E0C0E08C2F0E9445
:100150009500F80181918F010E949500CF5FCD300D
:10016000A9F78AE00E949500FFEF24E38CE0F150AC
:1001700020408040E1F700C0000087E00E94950029
:10018000889580E090E0CF911F910F910895F894A9
:02019000FFCF9F
:00000001FF
