:1000000033C000004CC000004AC0000048C00000DF
:1000100046C0000044C0000042C0000040C00000D4
:100020003EC000003CC000003AC0000038C00000E4
:1000300036C0000034C0000032C0000030C00000F4
:100040002EC000002CC000002AC0000028C0000004
:1000500026C0000024C0000022C0000020C0000014
:100060001EC000001CC0000011241FBECFEFD8E04E
:10007000DEBFCDBF11E0A0E0B1E0E6E9F1E002C0F3
:1000800005900D92AC31B107D9F721E0ACE1B1E0B8
:1000900001C01D92A232B207E1F72FD07AC0B0CFD3
:1000A000CF93C82F8A3011F48DE0FADF8091C00021
:1000B00085FFFCCFC093C60080E090E0CF9108950B
:1000C000CF932091C00027FFFCCFC091C600BC0198
:1000D0008C2FE6DF8C2FCC0F990BCF9108951092C7
:1000E000C0001092C50087E68093C40088E1809329
:1000F000C10086E08093C2000895F1DF80E091E0C6
:10010000909321018093200190931D0180931C0105
:1001100090931F0180931E018EE091E00AD02FEF93
:1001200083ED90E3215080409040E1F700C0000053
:10013000F3CF0F931F93CF93DF93E0911E01F091C4
:100140001F01238121FF1BC08C01D0E0C0E0F8011A
:1001500081918F0160911E0170911F01DB01189642
:10016000ED91FC911997882331F00995892B79F34A
:10017000DFEFCFEFECCF8AE00995892B19F08FEFF5
:100180009FEF02C08D2F9C2FDF91CF911F910F9178
:060190000895F894FFCF72
:1001960000000003000000005000600000004865F9
:0C01A6006C6C6F20576F726C64210000BD
:00000001FF
