:1000000033C000004CC000004AC0000048C00000DF
:1000100046C0000044C0000042C0000040C00000D4
:100020003EC000003CC000003AC0000038C00000E4
:1000300036C0000034C0000032C0000030C00000F4
:100040002EC000002CC000002AC0000028C0000004
:1000500026C0000024C0000022C0000020C0000014
:100060001EC000001CC0000011241FBECFEFD8E04E
:10007000DEBFCDBF11E0A0E0B1E0EEE3F1E002C0F1
:1000800005900D92A234B107D9F721E0A2E4B1E0C6
:1000900001C01D92A834B207E1F712D04EC0B0CF14
:1000A000CF93C82F8A3011F48DE0FADF8091C00021
:1000B00085FFFCCFC093C60080E090E0CF9108950B
:1000C00080E091E090934501809344018EE091E0BF
:1000D00004D0889580E090E008950F931F93CF930C
:1000E000DF93E0914401F0914501238121FF1BC082
:1000F0008C01D0E0C0E0F80181918F016091440152
:1001000070914501DB011896ED91FC9119978823B8
:1001100031F00995892B79F3DFEFCFEFECCF8AE04F
:100120000995892B19F08FEF9FEF02C08D2F9C2F1F
:0E013000DF91CF911F910F910895F894FFCFAA
:10013E000000000200000000500000000000426FAE
:10014E006F746C6F616465722070726F7065726C23
:10015E00792070726F6772616D6D65642C20616EAF
:10016E00642072616E206D65212048757A7A61680F
:02017E0021005E
:00000001FF
